:1000000004308A005E2C00000A108A100A11820750
:1000100028340C34013406340C0049224527D424FA
:10002000C624D12AC529450049223A100001C2340C
:100030006537F632EE34E437A030A022733AF23A54
:10004000633A7539E1390001C131E332F3372022D7
:100050006537E53361326F00383084008313000860
:1000600003193F280630F800F701F70B3528F80B85
:1000700034287B30F700F70B3B28800B3228080030
:100080003F184428081245280816831608128312C0
:10009000BF184C2888124D288816831688128312A0
:1000A0003F1954280813552808178316081383127C
:1000B000BF195C2888135D288817831688130000F1
:1000C0008811831288150230F700F70B652868281D
:1000D0000000831688118312881108008316081106
:1000E000831208116330F700F70B74287728BC08D7
:1000F00003197F2883160811831208158328831695
:1001000008118312081100008316881183128811C8
:100110003D0EBE000F30BE053E08BF0040203D082A
:100120000F39BE00BF00402008008316081183125B
:10013000081183168811831288110F30B8002C2003
:10014000B4013408023C031CAD280330BF0040203A
:100150000530B8002C20B40AA1280230BF0040208E
:10016000B4013408033C031CC12834080420B50042
:10017000BC013508BD006E200530B8002C20B40A43
:10018000B1288A110A128C2C8510831685108312CF
:10019000051083160510031083124F0D7E39D2000F
:1001A0000830D100D1080319EC2852088039803C6E
:1001B0000319DC280511DD280515831605118312A6
:1001C00085148316851003108312D20D85108316B3
:1001D00085108312D103D2280830D100D108031929
:1001E000082950088039803C0319F8280511F9289E
:1001F00005158316051183128514831685100310C7
:100200008312D00D8510831685108312D103EE283A
:100210000514831605108312851483168510831226
:100220000800D101851083168510831205108316EE
:100230000510031083124E0D7E398038D00008302F
:10024000CF00CF0803193B2950088039803C03199F
:100250002B2905112C2905158316051183128514E8
:100260008316851003108312D00D85108316851018
:100270008312CF0321290830CF00CF080319532957
:1002800085148316851003108312D10D83168515EE
:100290000030831285190130D10485108316851032
:1002A0008312CF033D29051483160510831285148C
:1002B0008316851083125108F8000800CD014B0801
:1002C000CE0011217808CD004C08FF3A4D05CE0034
:1002D0004B08CF004E08D000C4200800CD014B08C9
:1002E000CE0011217808CD004D084C04CE004B08FB
:1002F000CF004E08D000C420080005148316051056
:10030000831205168316051283120516831605122D
:1003100089298A2900008312051283160512902963
:100320009129000083120516831605129729982932
:10033000000001308312CF000F30D000C420A0296C
:10034000A12900002A30CF008D30D000C4202B30EE
:10035000CF003E30D000C4202D30CF001E30D00062
:10036000C4202C30CF00D001C4201530CF00403045
:10037000D000C4201130CF003D30D000C420143054
:10038000CB000330CC005E211430CE001121780860
:10039000B4001430CB000330CC006E218A110A1255
:1003A0008D2C390BD429D7294030BA00D829BA016D
:1003B00001303802BA073A088038BB00BC013B085C
:1003C000BD006E20080037080C3A0319EE29063AE2
:1003D0000319F629023A0319FC29012ABC0101304C
:1003E000BD006E200230B8002C20062A0130B80073
:1003F0000230B900D121062ABC011030BD006E20A8
:10040000062A0130BC003708BD006E2008000B082A
:10041000B4008B13831603178C170C140000000014
:1004200083120313B41B8B1703170C087F390319AE
:100430005B2A0313B40003170D080313B500031759
:100440000F080313B6003408B700E321350803177B
:100450008D000313360803178F0003130B08B70032
:100460008B13831603178C170C14000000008312E3
:100470000313B71B8B1703170C0D0E0D7F390319D0
:100480005B2A0313B40003170D080313B500031709
:100490000F080313B6003408B700E321350803172B
:1004A0008D000313360803178F008D0A03198F0A76
:1004B0000313072A0317031308000230C500C601FF
:1004C000C7013D080E3A0319692A023A03196E2A38
:1004D000732A1230C6001030C700732A7730C60066
:1004E0003030C700732A46088038CB000230CF0076
:1004F0004B08D000C4200430CB008030CC005E21FB
:100500000A30CB008030CC006E210130CF00D0010A
:10051000C420CA0140084A0203189D2A4A083E071F
:10052000840083133F1883170008CB000930CF00E5
:100530004B08D000C420CA0A8A2A0130CF003D08E7
:10054000D000C4203D080C3C031DAB2A0D30CB006D
:100550008030CC006E21FF30CA000430CE00112163
:100560007808C900CA03CA080319BC2A4918BC2A5A
:10057000490847050319AD2A0D30CB008030CC0067
:100580005E21CA080319342B0630CE0011217808E9
:100590001B39031D322BC5014908460501390319D2
:1005A000D32A0130C5003D080C3C031D312B0A3015
:1005B000CE0011217808C9000C30CE001121780836
:1005C0000739C800C8080319F62A430884008313B2
:1005D0004418831701304902F700F70DF70DF70DA6
:1005E000F830F705770848078000032B430884009C
:1005F000831344188317490DF700F70DF70DF830F2
:10060000F70577088000C908031D082B0130C900D1
:100610004908103C03180E2B1030C900CA014908C4
:100620004A0203182A2B4A084107F8004208FA0038
:100630000318FA0A7808CB007A08CC000930CE00FB
:1006400011214B08840083134C188317780880000D
:10065000CA0A0F2B4A0841078400831342188317E4
:100660008001342B0230C5004508F8000800263010
:10067000B6003508B8003408B7000D30CF00073099
:10068000D000C42037088400831338188317360835
:1006900080000C30BD003808BF003708BE000130B4
:1006A000C0003808C2003708C100C4013A30C30096
:1006B0005D227808B900B908031D622B3A08103C86
:1006C0000319642B0230B9003908F800F808031D3B
:1006D0006D2B0130F8006F2B6F2B0030F8008A1162
:1006E0000A12A12C3508B8003408B700BB010D3040
:1006F000CF00D001C4203708840083133818831733
:100700009330800001303707840083133818831733
:10071000203080000830CB00CC005E210C30BD00C2
:100720003808BF003708BE000230C0003808C200D9
:100730003708C100C4013C30C3005D227808B9000D
:10074000B908031DBE2BBA013A08033C031CB22BA7
:100750003A08370784008313381883170008BB064C
:10076000BA0AA42B04303707840083133818831780
:1007700000083B020319BE2B0230B9003908F8000B
:100780007808B600053034078400831335188317C2
:100790008001B608031DD02B0130F800D22BD22BDC
:1007A0000030F8008A110A12A82C0C3003178D00B3
:1007B00000308F00031307220800B61BEF2B0F3009
:1007C000F700350EF7050A3077020318EA2B3030B0
:1007D000F707EC2B3608F7077708B700E3210F304F
:1007E000B5050A3035020318F72B3030F92BB61354
:1007F0003608B5073508B700E3218A110A12CB2C59
:10080000340884008313351883170008B8003608AD
:10081000840083133718831700083802031D4A2CFD
:100820000130340784008313351883170008B8009B
:100830000130360784008313371883170008380205
:10084000031D4A2C023034078400831335188317A4
:100850000008B80002303607840083133718831766
:1008600000083802031D4A2C033034078400831328
:10087000351883170008B800033036078400831347
:100880003718831700083802031D4A2C0130F8007E
:100890004C2C4C2C0030F8000800B6013608093CFE
:1008A000031C5B2C36083407840083133518831728
:1008B0008001B60A4E2C8A110A12422D03081F39F4
:1008C0008300B20183161F149F141F159F11073058
:1008D0009C0083136B308312A0003A30A100453096
:1008E000A2000130A3004330A4008930A5002D30C0
:1008F000A6003130A700AB30A8006030A9003B3023
:10090000AA000130AB00831606108312061083166E
:1009100086108312861095287D290230B800013098
:10092000B900D1210D3003178D0000308F00031363
:1009300007228316861283128616B5013130B40061
:10094000372BF8080319472DB5012D30B400722B51
:10095000F8080319462DD5230130B800B900D1217C
:10096000143003178D0000308F0003130722053069
:10097000B8000130B900D121B3013308033C031C96
:10098000CD2C2D303307840083130008B400B5004C
:100990003730B600DD2BB30ABD2CB5012D30B400C5
:1009A000B7012030B6000024F808031DEB2CB50178
:1009B0002D30B400B7012430B6000024F808031D20
:1009C000EB2CB5012D30B400B7012830B60000245F
:1009D000F8080319152DB208031D142D83160610EF
:1009E0008312061483168610831286100130B80015
:1009F0000230B900D121173003178D0000308F006D
:100A0000031307220430B400FA30B8002C20B40BD2
:100A1000042D831606108312061083168610831287
:100A20008610D5230130B2003E2DB208031D3E2DA5
:100A300083168610831286148316061083120610FE
:100A40000130B8000230B900D121243003178D00E5
:100A500000308F00031307220430B400FA30B800CE
:100A60002C20B40B2E2D831606108312061083162D
:100A7000861083128610D5230130B200B5012D30C7
:100A8000B4004D2C6430B8002C20472DB2018D2CC1
:020A9000630001
:02400E003A3F37
:00000001FF
;PIC16F877A
;CRC=475F  CREATED="18-sept.-24 18:19"
