:1000000004308A00F82C00000A108A100A118207B6
:1000100028340C34013406340C0049223A10000113
:10002000C2346537F632EE34E437A030A022733A9A
:10003000F23A633A7539E1390000C131E332F337FE
:1000400020226537E53361326F0049224527D424E9
:10005000C624D12AC52945003730840083130008FF
:1000600003193F280630F800F701F70B3528F80B85
:1000700034287B30F700F70B3B28800B3228080030
:100080003E184428081245280816831608128312C1
:10009000BE184C2888124D288816831688128312A1
:1000A0003E1954280813552808178316081383127D
:1000B000BE195C2888135D288817831688130000F2
:1000C0008811831288150230F700F70B652868281D
:1000D0000000831688118312881108008316081106
:1000E000831208116330F700F70B74287728BB08D8
:1000F00003197F2883160811831208158328831695
:1001000008118312081100008316881183128811C8
:100110003C0EBD000F30BD053D08BE0040203C0830
:100120000F39BD00BE0040200800851083168510E1
:100130008312051083160510031083124D0D7E39AE
:10014000D0000830CF00CF080319BD2850088039EF
:10015000803C0319AD280511AE280515831605113D
:10016000831285148316851003108312D00D851019
:10017000831685108312CF03A3280830CF00CF0841
:100180000319D9284E088039803C0319C928051164
:10019000CA28051583160511831285148316851048
:1001A00003108312CE0D8510831685108312CF03A2
:1001B000BF28051483160510831285148316851035
:1001C00083120800CF018510831685108312051055
:1001D00083160510031083124C0D7E398038CE0033
:1001E0000830CD00CD0803190C294E088039803C19
:1001F0000319FC280511FD28051583160511831226
:1002000085148316851003108312CE0D8510831676
:1002100085108312CD03F2280830CD00CD080319D4
:10022000242985148316851003108312CF0D83169D
:1002300085150030831285190130CF04851083168F
:1002400085108312CD030E29051483160510831221
:1002500085148316851083124F08F8000800CB011F
:100260004908CC00E2207808CB004A08FF3A4B0549
:10027000CC004908CD004C08CE0095200800CB01E9
:100280004908CC00E2207808CB004B084A04CC0097
:100290004908CD004C08CE009520080083160610B2
:1002A0008312061083168610831286108316081197
:1002B0008312081183168811831288110F30B7003A
:1002C0002C20B2013208023C031C6E290330BE0010
:1002D00040200530B7002C20B20A62290230BE004F
:1002E0004020B2013208033C031C8229320804205A
:1002F000B300BB013308BC006E200530B7002C20D2
:10030000B20A722905148316051083120516831686
:10031000051283120516831605128E298F290000F7
:10032000831205128316051295299629000083125F
:100330000516831605129C299D29000001308312A1
:10034000CD000F30CE009520A529A62900002A3027
:10035000CD008D30CE0095202B30CD003E30CE002C
:1003600095202D30CD001E30CE0095202C30CD00B4
:10037000CE0195201530CD004030CE0095201130B3
:10038000CD003D30CE0095201430C9000330CA00A6
:100390002F211430CC00E2207808B2001430C900BC
:1003A0000330CA003F218A110A121E2D380BD929A9
:1003B000DC294030B900DD29B90101303702B90725
:1003C00039088038BA00BB013A08BC006E2008002A
:1003D00036080C3A0319F329063A0319FB29023AA5
:1003E0000319012A062ABB010130BC006E2002302D
:1003F000B7002C200B2A0130B7000230B800D621FC
:100400000B2ABB011030BC006E200B2A0130BB0050
:100410003608BC006E2008000B08B3008B1383164F
:1004200003178C170C140000000083120313B31B76
:100430008B1703170C087F390319602A0313B300C5
:1004400003170D080313B40003170F080313B500B7
:100450003308B600E821340803178D00031335086C
:1004600003178F0003130B08B6008B1383160317B3
:100470008C170C140000000083120313B61B8B179B
:1004800003170C0D0E0D7F390319602A0313B300F7
:1004900003170D080313B40003170F080313B50067
:1004A0003308B600E821340803178D00031335081C
:1004B00003178F008D0A03198F0A03130C2A0317E1
:1004C000031308000230C300C401C5013B080E3A03
:1004D00003196E2A023A0319732A782A1230C400CB
:1004E0001030C500782A7730C4003030C500782A33
:1004F00044088038C9000230CD004908CE0095205C
:100500000430C9008030CA002F210A30C900803071
:10051000CA003F210130CD00CE019520C8013E0820
:1005200048020318A22A48083C07840083133D1898
:1005300083170008C9000930CD004908CE00952076
:10054000C80A8F2A0130CD003B08CE0095203B0819
:100550000C3C031DB02A0D30C9008030CA003F2179
:10056000FF30C8000430CC00E2207808C700C80380
:10057000C8080319C12A4718C12A470845050319A5
:10058000B22A0D30C9008030CA002F21C8080319D3
:10059000392B0630CC00E22078081B39031D372B9D
:1005A000C3014708440501390319D82A0130C300A3
:1005B0003B080C3C031D362B0A30CC00E2207808A7
:1005C000C7000C30CC00E22078080739C600C60806
:1005D0000319FB2A41088400831342188317013052
:1005E0004702F700F70DF70DF70DF830F70577081C
:1005F00046078000082B41088400831342188317A4
:10060000470DF700F70DF70DF830F7057708800074
:10061000C708031D0D2B0130C7004708103C031805
:10062000132B1030C700C8014708480203182F2BAE
:1006300048083F07F8004008FA000318FA0A78084B
:10064000C9007A08CA000930CC00E22049088400B9
:1006500083134A18831778088000C80A142B4808A7
:100660003F0784008313401883178001392B023021
:10067000C3004308F80008002630B4003308B60071
:100680003208B5000D30CD000730CE00952035087A
:100690008400831336188317340880000C30BB00A5
:1006A0003608BD003508BC000130BE003608C00069
:1006B0003508BF00C2013830C10062227808B70097
:1006C000B708031D672B3808103C0319692B02304B
:1006D000B7003708F800F808031D722B0130F80046
:1006E000742B742B0030F8008A110A12322D330853
:1006F000B6003208B500B9010D30CD00CE0195200D
:100700003508840083133618831793308000013036
:100710003507840083133618831720308000083093
:10072000C900CA002F210C30BB003608BD003508B7
:10073000BC000230BE003608C0003508BF00C20150
:100740003A30C10062227808B700B708031DC32BF6
:10075000B8013808033C031CB72B38083507840060
:100760008313361883170008B906B80AA92B04307A
:1007700035078400831336188317000839020319DC
:10078000C32B0230B7003708F8007808B4000530F2
:10079000320784008313331883178001B408031DC4
:1007A000D52B0130F800D72BD72B0030F8008A1159
:1007B0000A12392D0C3003178D0000308F000313FF
:1007C0000C220800DA230130B700B800D6210D3022
:1007D00003178D0000308F0003130C220530B70083
:1007E0000130B800D621B2013208033C031C242C8E
:1007F0002C303207840083130008B3003308B400A0
:100800003730B500B51B142C0F30F700340EF70548
:100810000A30770203180F2C3030F707112C3508F7
:10082000F7077708B600E8210F30B4050A30340224
:1008300003181C2C30301E2CB5133508B4073408AF
:10084000B600E821B20AF42B8A110A123D2D3208B3
:1008500084008313331883170008B600340884001B
:1008600083133518831700083602031D712C0130DD
:10087000320784008313331883170008B600013051
:100880003407840083133518831700083602031DCC
:10089000712C023032078400831333188317000849
:1008A000B60002303407840083133518831700081C
:1008B0003602031D712C0330320784008313331872
:1008C00083170008B60003303407840083133518FB
:1008D000831700083602031D712C0130F800732CB9
:1008E000732C0030F8000800B3012C30B200B501C1
:1008F0002030B4002724F808031D942CB3012C30B9
:10090000B200B5012430B4002724F808031D942C4C
:10091000B3012C30B200B5012830B4002724F80808
:10092000031D942C0030952C0130F8008A110A1216
:10093000412D831606108312061483168610831227
:1009400086100130B7000230B800D62110300317EE
:100950008D0000308F0003130C220430B200FA30F7
:10096000B7002C20B20BAF2C831606108312061092
:100970008316861083128610DA238A110A12452DF7
:1009800083168610831286148316061083120610AF
:100990000130B7000230B800D6211D3003178D009A
:1009A00000308F0003130C220430B200FA30B7007D
:1009B0002C20B20BD62C8316061083120610831639
:1009C000861083128610DA238A110A12472DB40189
:1009D0003408093C031CF52C3408320784008313C7
:1009E000331883178001B40AE82C8A110A124D2D9E
:1009F00003081F398300B10183161F149F141F15AC
:100A00009F1107309C0083136B308312A0003A3093
:100A1000A1004530A2000130A3004330A40089307A
:100A2000A5002D30A6003130A700AB30A800603003
:100A3000A9003B30AA000130AB004E290230B700BC
:100A40000130B800D621253003178D0000308F000B
:100A500003130C228316861283128616B3013030DC
:100A6000B2003C2BF8080319522DB3012C30B20010
:100A7000772BF8080319512DE22BB108031D492DDE
:100A8000742CF8080319462D992C472DC02C0130E1
:100A9000B100B3012C30B200E72C6430B7002C2039
:080AA000522DB1011E2D63006F
:02400E003A3F37
:00000001FF
;PIC16F877A
;CRC=F6CA  CREATED="01-oct.-24 14:52"
